:020000040800F2
:10000000D806002029020008310200083302000847
:10001000350200083702000839020008000000001D
:100020000000000000000000000000003B0200088B
:100030003D020008000000003F02000841020008E5
:10004000430200084302000843020008430200087C
:10005000430200084302000843020008430200086C
:10006000430200084302000843020008430200085C
:10007000430200084302000843020008430200084C
:10008000430200084302000843020008430200083C
:10009000430200084302000843020008430200082C
:1000A000430200084302000843020008430200081C
:1000B000430200084302000843020008430200080C
:1000C00043020008430200084302000843020008FC
:1000D00043020008430200084302000843020008EC
:1000E00043020008430200084302000843020008DC
:1000F00043020008430200084302000843020008CC
:1001000043020008430200084302000843020008BB
:1001100043020008430200084302000843020008AB
:10012000430200084302000843020008430200089B
:10013000430200084302000843020008430200088B
:10014000430200084302000843020008430200087B
:10015000430200084302000843020008430200086B
:10016000430200084302000843020008430200085B
:10017000430200084302000843020008430200084B
:10018000430200084302000800F002F800F03CF8C7
:100190000AA090E8000C82448344AAF10107DA45E2
:1001A00001D100F031F8AFF2090EBAE80F0013F0F8
:1001B000010F18BFFB1A43F0010318479C0600000B
:1001C000BC060000103A24BF78C878C1FAD852079C
:1001D00024BF30C830C144BF04680C6070470000C1
:1001E0000023002400250026103A28BF78C1FBD840
:1001F000520728BF30C148BF0B6070471FB500F0E1
:1002000025FB1FBD10B510BD00F031F81146FFF7FA
:10021000F5FF00F0A7FA00F04FF803B4FFF7F2FF84
:1002200003BC00F057F80000094880470948004720
:10023000FEE7FEE7FEE7FEE7FEE7FEE7FEE7FEE796
:10024000FEE7FEE704480549054A064B70470000F3
:100250004906000889010008D8000020D8060020BF
:10026000D8020020D80200207047704770477546BA
:1002700000F02CF8AE4605006946534620F0070012
:10028000854618B020B5FFF7DDFFBDE820404FF0F0
:1002900000064FF000074FF000084FF0000B21F070
:1002A0000701AC46ACE8C009ACE8C009ACE8C0093D
:1002B000ACE8C0098D46704710B50446AFF3008026
:1002C0002046BDE81040FFF7A8BF00000048704777
:1002D0007400002001491820ABBEFEE72600020092
:1002E000704721B1826842F00102826003E08268B7
:1002F00022F00102826070470021084A1168084A12
:100300001140D0E900231A4383681A43C3681A4393
:100310001143044AC2F8041370470000042301404B
:10032000E030FCFF002001400146C86C80B27047FD
:100330000246002013680B400BB1012000E00020B2
:100340007047000030B50246002000235068104C72
:1003500020400D790C6844EA0524204350609068E1
:100360000C4C2040D1E903542C438D682C434D792B
:1003700044EA450420439060D06A20F470000C7D6C
:10038000641EE4B2234340EA0350D06230BD000053
:10039000FFFEFFFCFDF7FFC0F0B504460D46002050
:1003A0000021092D11DDE068A5F10A0606EB4607DC
:1003B000072606FA07F18843A5F10A0606EB46066A
:1003C00003FA06F10843E0600CE0206905EB4507FD
:1003D000072606FA07F1884305EB450603FA06F1FE
:1003E00008432061072A0FDA606B561E06EB86076A
:1003F0001F2606FA07F18843561E06EB860605FA05
:1004000006F10843606322E00D2A0FDA206BD61F45
:1004100006EB86071F2606FA07F18843D61F06EB70
:10042000860605FA06F10843206310E0E06AA2F1AF
:100430000D0606EB86071F2606FA07F18843A2F190
:100440000D0606EB860605FA06F10843E062F0BDEC
:10045000816841F0804181607047F0B50A46002113
:100460000023002400BF3DE0012505FA01F31568D3
:1004700005EA03049C4234D105684F000326BE40C0
:10048000B543056015794E00B540066835430560F3
:100490001579012D02D01579022D16D185684F00EE
:1004A0000326BE40B543856055794E00B540866849
:1004B00035438560456801268E40B54345604568F3
:1004C00096798E40B6B235434560C5684F00032625
:1004D000BE40B543C560D5794E00B540C6683543CA
:1004E000C560491C1029BFD3F0BD000029B1064AE0
:1004F00012680243044B1A6004E0034A1268824304
:10050000014B1A60704700003038024029B1064A9A
:1005100012680243044B1A6004E0034A12688243E3
:10052000014B1A60704700004438024010B50323A5
:10053000012200210848FFF72FFF0748FFF788FF37
:1005400000BF02210448FFF7F3FE0028F9D002485B
:10055000FFF7EAFE10BD0000002001400CB50020AE
:10056000019000903448006840F4803032490860BF
:1005700000BF3148006800F4003000900198401C32
:100580000190009818B90198B0F5A04FF1D12A4810
:10059000006800F4003010B10120009001E000205C
:1005A00000900098012846D123484030006840F070
:1005B00080502149403108602048006840F44040A4
:1005C0001E4908601C48083000681B490831086053
:1005D0000846006840F4004008600846006840F49F
:1005E000A05008601648091F0860081F006840F006
:1005F0008070091F086000BF0F48006800F000709D
:100600000028F9D040F205700E4908600A48083009
:10061000006820F0030008490831086008460068B7
:1006200040F00200086000BF03480830006800F096
:100630000C000828F8D10CBD0038024000700040C2
:1006400019544007003C024010B51548006840F4BA
:100650007000134908601348006840F00100114918
:10066000086000200F49083108600E4800680E49F4
:1006700008400C4908600D48091D0860081F006803
:1006800020F48020091F0860002006490C31086012
:10069000FFF764FF4FF0006001498039086010BD2A
:1006A00088ED00E000380240FFFFF6FE1030002425
:1006B0000149086070470000140C024000B5024672
:1006C0004FF47A7000F001F800BD800000E0401E99
:1006D0000028FCD17047000000B58FB0012108460A
:1006E000FFF704FF01210820FFF700FF01210802A6
:1006F000FFF70CFF01208DF830004FF23F000B9008
:1007000000208DF8320003208DF831000BA912482B
:10071000FFF7A3FE03208DF8380001200D90002084
:100720008DF83A008DF83B000DA90C48FFF795FEB7
:10073000002001904FF48030029001A8FFF7DCFD0B
:100740000020059005A90648FFF7FCFD012104489B
:10075000FFF7C7FD0FB000BD000C024000000240D3
:1007600000200140FFF7B8FF29E000250824002001
:10077000134908701BE0204600F028F8C4F13F0040
:10078000FFF796FF681CC5B20A20FFF797FFFFF737
:10079000CDFE0C490A4A127821F812004FF47A7003
:1007A000FFF78CFF06480078401C05490870044894
:1007B00000783828DFDB0448FFF780FF00BFD4E76C
:1007C0000200002004000020A086010000B50346BE
:1007D0004FF400401C4908804010088040100880F9
:1007E00000221CE0934205D14FF400401649891EB7
:1007F000088003E04FF40040134908800120FFF710
:1008000064FF4FF480401049891E08800120FFF7E3
:100810005CFF4FF480400C490880501CC2B2382A5B
:10082000E0DB0120FFF751FF4FF400500649891E1D
:1008300008800120FFF749FF4FF40050024908806B
:100840000120FFF742FF00BD1A0C02404FF040703C
:10085000E1EE100A70470000780800080000002050
:1008600004000000C40100087C0800080400002007
:0C087000D4060000E001000800000000B9
:0400000508000229C4
:00000001FF
