:020000040800F2
:1000000078060020290200083102000833020008A7
:10001000350200083702000839020008000000001D
:100020000000000000000000000000003B0200088B
:100030003D020008000000003F02000841020008E5
:10004000430200084302000843020008430200087C
:10005000430200084302000843020008430200086C
:10006000430200084302000843020008430200085C
:10007000430200084302000843020008430200084C
:10008000430200084302000843020008430200083C
:10009000430200084302000843020008430200082C
:1000A000430200084302000843020008430200081C
:1000B000430200084302000843020008430200080C
:1000C00043020008430200084302000843020008FC
:1000D00043020008430200084302000843020008EC
:1000E00043020008430200084302000843020008DC
:1000F00043020008430200084302000843020008CC
:1001000043020008430200084302000843020008BB
:1001100043020008430200084302000843020008AB
:10012000430200084302000843020008430200089B
:10013000430200084302000843020008430200088B
:10014000430200084302000843020008430200087B
:10015000430200084302000843020008430200086B
:10016000430200084302000843020008430200085B
:10017000430200084302000843020008430200084B
:10018000430200084302000800F002F800F03CF8C7
:100190000AA090E8000C82448344AAF10107DA45E2
:1001A00001D100F031F8AFF2090EBAE80F0013F0F8
:1001B000010F18BFFB1A43F001031847C4220000C7
:1001C000E4220000103A24BF78C878C1FAD8520758
:1001D00024BF30C830C144BF04680C6070470000C1
:1001E0000023002400250026103A28BF78C1FBD840
:1001F000520728BF30C148BF0B6070471FB502F0DF
:1002000077F81FBD10B510BD00F044F81146FFF798
:10021000F5FF01F0C5F900F062F803B4FFF7F2FF53
:1002200003BC00F065F80000094880470948004712
:10023000FEE7FEE7FEE7FEE7FEE7FEE7FEE7FEE796
:10024000FEE7FEE704480549054A064B70470000F3
:100250006506000889010008780000207806002063
:10026000780200207802002070477047704710B570
:1002700000F008F8006810BD10B5044600F002F860
:10028000046010BD0048704714000020004870470B
:10029000140000207546FFF7F9FFAE4605006946D9
:1002A000534620F00700854618B020B5FFF7CAFF77
:1002B000BDE820404FF000064FF000074FF0000867
:1002C0004FF0000B21F00701AC46ACE8C009ACE8E8
:1002D000C009ACE8C009ACE8C0098D46704710B54C
:1002E0000446AFF300802046BDE81040FFF795BFFD
:1002F00001491820ABBEFEE726000200704721B17D
:10030000826842F00102826003E0826822F001020A
:10031000826070470021084A1168084A1140D0E9FC
:1003200000231A4383681A43C3681A431143044ADB
:10033000C2F804137047000004230140E030FCFFC2
:10034000002001400146C86C80B270470246002080
:1003500013680B400BB1012000E000207047000043
:1003600030B50246002000235068104C20400D7923
:100370000C6844EA05242043506090680C4C2040EF
:10038000D1E903542C438D682C434D7944EA45044C
:1003900020439060D06A20F470000C7D641EE4B2AB
:1003A000234340EA0350D06230BD0000FFFEFFFC53
:1003B000FDF7FFC0F0B504460D4600200021092DD1
:1003C00011DDE068A5F10A0606EB4607072606FAE6
:1003D00007F18843A5F10A0606EB460603FA06F183
:1003E0000843E0600CE0206905EB4507072606FAA4
:1003F00007F1884305EB450603FA06F1084320613F
:10040000072A0FDA606B561E06EB86071F2606FAD0
:1004100007F18843561E06EB860605FA06F10843E7
:10042000606322E00D2A0FDA206BD61F06EB8607E9
:100430001F2606FA07F18843D61F06EB860605FA43
:1004400006F10843206310E0E06AA2F10D0606EB16
:1004500086071F2606FA07F18843A2F10D0606EB70
:10046000860605FA06F10843E062F0BD816841F0B6
:10047000804181607047F0B50A46002100230024C6
:1004800000BF3DE0012505FA01F3156805EA030404
:100490009C4234D105684F000326BE40B543056039
:1004A00015794E00B5400668354305601579012D74
:1004B00002D01579022D16D185684F000326BE4063
:1004C000B543856055794E00B540866835438560F3
:1004D000456801268E40B5434560456896798E4053
:1004E000B6B235434560C5684F000326BE40B543EC
:1004F000C560D5794E00B540C6683543C560491C16
:100500001029BFD3F0BD000029B1064A126802438A
:10051000044B1A6004E0034A12688243014B1A60DC
:10052000704700003038024029B1064A1268024381
:10053000044B1A6004E0034A12688243014B1A60BC
:10054000704700004438024010B503230122002107
:100550000848FFF72FFF0748FFF788FF00BF022179
:100560000448FFF7F3FE0028F9D00248FFF7EAFE3F
:1005700010BD0000002001400CB50020019000904B
:100580003448006840F480303249086000BF314888
:10059000006800F4003000900198401C0190009821
:1005A00018B90198B0F5A04FF1D12A48006800F4BD
:1005B000003010B10120009001E000200090009870
:1005C000012846D123484030006840F0805021493E
:1005D000403108602048006840F440401E490860EF
:1005E0001C48083000681B4908310860084600684C
:1005F00040F4004008600846006840F4A0500860DD
:100600001648091F0860081F006840F08070091F25
:10061000086000BF0F48006800F000700028F9D0A3
:1006200040F205700E4908600A480830006820F062
:1006300003000849083108600846006840F00200DD
:10064000086000BF03480830006800F00C0008286C
:10065000F8D10CBD0038024000700040195440072A
:10066000003C024010B51548006840F47000134982
:1006700008601348006840F001001149086000203C
:100680000F49083108600E4800680E4908400C49BF
:1006900008600D48091D0860081F006820F48020CC
:1006A000091F0860002006490C310860FFF764FF4D
:1006B0004FF0006001498039086010BD88ED00E00E
:1006C00000380240FFFFF6FE1030002403B401980A
:1006D0004100009850EAC12018BF04204A0D18BFFD
:1006E00040F0010040F2FF72B2EB515F08BF40F0F2
:1006F0000200012808BF052002B07047000000007A
:100700002DE9F04D2DED040B2DED0E8B96B0DDE9AE
:100710002550279CDDF890A025F0004624F00048E5
:10072000BAF1000F14BF0121002101EB4502FC4981
:1007300053184A1093422AD3002814BF01230023E0
:1007400003EB44030B44F7498B4220D358EA0001E2
:100750009FEDF59B76D0DFF8D8B35D4503D1BAF1B4
:10076000000F05D188E0BAF1000F08BF002100D0CA
:10077000012101EB450111F5001F08D8002814BF25
:100780000121002101EB440111F5001F0BD99DED62
:10079000261B9DED240B16B0BDEC0E8B04B0BDE8FE
:1007A000F04D00F069BE0027002DBCBFE14988452F
:1007B00021DAE1498845A8BF02271CDAC3451ADCC3
:1007C000DE4901EB2851142908DDC1F1340220FA79
:1007D00002F101FA02F282420DD108E058B9C1F1EA
:1007E000140228FA02F101FA02F2424503D101F0A3
:1007F0000101C1F1020756EA0A0124D1002C22DAD4
:10080000002D18BF022F01D0012F0AD00220FFF7C0
:1008100033FD16B0BDEC0E8B04B0BDE8F04D00F01A
:1008200013BE0220FFF728FD00F00EFE51EC100B66
:1008300000F0B3FF41EC100B16B0BDEC0E8B04B012
:10084000BDE8F08D18E09FEDBEAB9FEDBF8B00289B
:1008500071D1B848804522D105F1804010F5801053
:1008600008BFBAF1000F07D0B3450ADC002CA8BFBF
:100870009DED260BE0DA0DE0B0EE490AF0EE690AD4
:10088000DAE7002C06DA9DED260B51EC100B00F098
:1008900084FF6FE0AE48784490ED000BCCE7D8457C
:1008A0004DD1002C48DA2EB186423AD1BAF1000F70
:1008B00042D126E0BAF1000F13D00220FFF7DCFC92
:1008C00000F0F6FD8DED020B9DED240B8DED000B80
:1008D00010EE900A039961F31E0003909DED020B48
:1008E000AAE78DED02AB9DED240B1AEE901A10EEE7
:1008F000900A8DED000B61F31E0003909DED020B3D
:100900009AE78DED028B9DED240B18EE901A10EEF8
:10091000900A8DED000B61F31E0003909DED020B1C
:100920008AE709DA9DED240B51EC190B53EC102BDF
:1009300000F0FCFF1EE020E09DED240B7CE78642EA
:100940001BDAB4F1804F0DD0A4F10050B0F1FF508C
:1009500013D1002D11DB9DED240B51EC100B00F099
:10096000E5FE07E09DED240B53EC102B51EC100B32
:1009700000F0C2BC41EC100B5EE79DED240B51EC86
:10098000100B00F0BBFDBAF1000FCDE90E0142D112
:100990009FED710B46B3A6F1E040B0F17F600CD043
:1009A0005E4538D1002D00DAA7B3022F0CBF01201D
:1009B0004FF0FF3001F03FF9DCE7002D01DD002CA6
:1009C0000DDA002D01DD002C1FDB002D16DA002CC6
:1009D00014DB012F08BF9FED620B3FF42DAFB0EE8B
:1009E0004A0AF0EE6A0A27E7022F18BF002D0CD042
:1009F000012F0AD1002DFFF61FAF06E0002DB8BF72
:100A0000002C08DA012F3FF417AFB0EE480AF0EEE1
:100A1000680A11E71BE0012000EBE57050EA0701CE
:100A200015D0791EB0EE498AF0EE698A084308BFF6
:100A30009FED4D8B4E480025804570DD4D494E4859
:100A4000884514DDB0420DDB002C19DB2FE00120BE
:100A5000FFF712FC16B0BDEC0E8B04B0BDE8F04DF4
:100A600000F016BDB34502DC002C09DC1FE0864215
:100A700002DA002C1BDA03E05E452BDD002C16DDCC
:100A80000220FFF7F9FB00F013FD8DED020B53EC94
:100A90001A2B51EC180B01F035F9CDE9000103993F
:100AA000019861F31E0003909DED020BC4E6022045
:100AB000FFF7E2FB00F00CFD10EE901A18EE900A22
:100AC0008DED020B8DED008B61F31E0003909DED0B
:100AD000020BB1E69DED0E0B53EC192B51EC100BF4
:100AE00001F01CFB9FED260BCDE9080153EC102B08
:100AF0009DED080B51EC100B01F004F99FED221B4A
:100B000053EC112B01F032FA9DED081B53EC112B25
:100B100001F0F8F89FED1E1B53EC112B3CE08CE02C
:100B2000FFFF1F00FFFF0F00000000000000F03F6C
:100B30000000F03F0000F07F0000404301FCFFFF99
:100B4000000000000000F07F000000000000000036
:100B5000DE1B00000000000000000000000000801C
:100B6000000000000000F0FF000000000000F0BFE7
:100B70000000E0410000F043FFFFEF3F00000000F5
:100B8000000000000000D03F555555555555D53F44
:100B9000000000000000E03F01F0E8F99DED080BC7
:100BA00041EC1A0B53EC102B51EC100B01F0AAF88E
:100BB00053EC1A2B01F0A6F841EC1A0B9FEDFE0B3B
:100BC00053EC102B9DED080B51EC100B01F09AF833
:100BD00041EC1B0B9FEDFA0B51EC1A0B53EC102B55
:100BE00001F090F841EC1A0B9FEDF70B53EC102B32
:100BF0009DED080B51EC100B01F084F853EC1A2B0F
:100C000001F08CFA41EC1A0B51EC1B0B53EC1A2B34
:100C100000F0D0FD0690CDE906519DED060B53EC9A
:100C20001B2B51EC100B01F079FA53EC1A2B01F04D
:100C30009DF941EC100B00F0A1B90020B6F5801F22
:100C40000EDA9FEDE30B53EC102B9DED0E0B51ECE8
:100C5000100B01F057F8CDE90E016FF034000E468D
:100C600000EB2650A0F2FF37C6F31300DA4940F03C
:100C70007F6646F040568842D8BF002408DDD74939
:100C80008142C8BF012403DC0024A6F580167F1C26
:100C9000D348784400EBC4000F9690ED00CB9DED57
:100CA0000E0B53EC1C2B51EC100B01F037FA9DEDA1
:100CB0000E0B41EC1B0B53EC1C2B51EC100B00F0FA
:100CC00079FD41EC100B51EC190B53EC102B00F09B
:100CD0002DFE41EC1D0B51EC1B0B53EC1D2B01F0B9
:100CE00011F841EC1A0BBF488DED10AB784410950C
:100CF00090ED000B4FF0005040EA660000EB84409E
:100D00008DED080B00F5002009909DED080B53ECCC
:100D10001C2B51EC100B01F001FA9DED0E1B53EC56
:100D2000112B01F023F941EC100B53EC102B9DED2E
:100D3000100B51EC100B00F0E5FF9DED080B41ECA2
:100D40001C0B53EC102B9DED100B51EC100B00F015
:100D5000D9FF53EC1B2B01F009F953EC1C2B01F0CC
:100D6000DDF953EC1D2B00F0CDFF41EC1C0B53ECD7
:100D70001A2B51EC1A0B00F0C5FF41EC1B0B9A48E3
:100D80000621B0EE4B0AF0EE6B0A784400F0E0FA70
:100D9000B0EE401AF0EE601AB0EE41DAF0EE61DA31
:100DA00053EC1B2B51EC1B0B00F0ACFF53EC1D2B39
:100DB00000F0A8FF9DED100B41EC1B0B53EC1A2B20
:100DC00051EC100B00F0F6FC53EC1C2B00F09AFFDA
:100DD00053EC1B2B00F0EEFC9DED100B41EC1B0BBC
:100DE00053EC102B51EC100B00F08CFF41EC1D0B61
:100DF0009FED7FEB53EC1E2B00F0DCFC53EC1B2B28
:100E000000F0D8FC0890CDE908519DED080B53EC9B
:100E10001E2B51EC100B01F081F953EC1D2B01F04E
:100E20007DF953EC1B2B01F0A1F89DED080B41EC73
:100E30001D0B53EC102B9DED100B51EC100B00F023
:100E400061FF41EC1B0B53EC1A2B51EC1D0B00F016
:100E500059FF9DED080B41EC1A0B53EC102B51EC94
:100E60001C0B00F04FFF53EC1A2B00F0A3FC41ECDD
:100E70001A0B51EC1B0B53EC1A2B00F09BFC0C9043
:100E8000CDE90C519DED0C0B53EC1B2B51EC100BD1
:100E900001F044F953EC1A2B01F068F841EC1B0BFC
:100EA0009FED550B53EC102B9DED0C0B51EC100BE3
:100EB00000F028FF41EC1A0B9FED510B51EC1B0B7E
:100EC00053EC102B00F01EFF41EC1B0B9FED4E0B63
:100ED00053EC102B9DED0C0B51EC100B00F012FF9E
:100EE00053EC1B2B00F066FC41EC100B4848784497
:100EF00000EBC40090ED001B51EC100B53EC112BD8
:100F000000F058FC41EC1B0B384600F094FECDE994
:100F1000080153EC1B2B51EC1A0B00F04BFC41EC7D
:100F2000100B3C48784400EBC40090ED00CB51EC32
:100F3000100B53EC1C2B00F03DFC9DED081B53ECFB
:100F4000112B00F037FC0690CDE906519DED080B02
:100F500053EC102B9DED060B51EC100B01F0DEF85D
:100F600053EC1C2B01F0DAF853EC1A2B01F0D6F8F5
:100F700053EC1B2B00F0FAFF41EC100B9DED261BF0
:100F800053EC102B8DED001B00959DED260B51ECC5
:100F9000100B00F0B7FE9DED000B41EC1A0B53EC6B
:100FA000102B9DED260B51EC100B01F0B7F89DEDC9
:100FB000061B53EC112B2FE0000000604715F73F94
:100FC000FE822B654715F73F44DF5DF80BAE543EBC
:100FD00000000000000040438E9803007AB60B002A
:100FE0005A17000088170000921600000000000049
:100FF0000000000000000840000000E009C7EE3FCC
:10100000FD033ADC09C7EE3FF5015B14E02F3EBE5D
:101010001E150000D814000000F074FE53EC1A2BCB
:1010200000F0C8FB9DED060B41EC1A0B53EC102BA6
:101030009DED000B51EC100B00F064FECDE90C01AE
:101040009DED0C0B51EC1A0B53EC102B00F0B2FB86
:10105000CDE902010C46AA498C422FDB611A0843F4
:1010600018D19DED0C0B53EC102B9DED020B51ECA8
:10107000100B01F053F841EC1B0B9FEDA30B51EC4F
:101080001A0B53EC102B00F095FB53EC1B2B00F0CC
:1010900037FF2DD20220FFF7EFF800F009FA10EE2B
:1010A000901A18EE900A8DED020B8DED008B61F316
:1010B0001E0003909DED020BFFF7BEBB944A24F087
:1010C0000041914214D39349214408437FF4EFAC8B
:1010D0009DED0C0B53EC102B9DED020B51EC100B06
:1010E00001F01CF853EC1A2B00F00AFF7FF6DFAC7E
:1010F00024F000408849894A002601EB20518242B1
:101100002BDA481C4FF4801121FA00F02044844A65
:10111000C0F30A517A44A1F2FF3192ED000B814AEB
:101120008DED080BCA4020EA0202C0F3130040F420
:101130008010C1F1140120FA01F60992002CB8BF09
:1011400076429DED080B53EC102B9DED0C0B51ECF2
:10115000100B00F0E3FFCDE90C019DED0C0B51EC01
:101160001A0B53EC102B00F025FB9FED6F0B089032
:10117000CDE9085153EC102B9DED080B51EC100BF1
:1011800000F0C0FD41EC1B0B9FED690B53EC102BE5
:101190009DED080B51EC100B00F0B4FD9DED0C0B18
:1011A00041EC1C0B53EC102B9DED080B51EC100B7C
:1011B00000F0B4FF53EC1A2B00F0D8FE9FED5E1B3D
:1011C00053EC112B00F09EFD53EC1C2B00F0F2FAB7
:1011D00041EC1A0B51EC1B0B53EC1A2B00F0EAFA02
:1011E000CDE902019DED020B53EC1B2B51EC100BD2
:1011F00000F094FF53EC1A2B00F0B8FE9DED020BAB
:1012000041EC1A0B53EC102B51EC100B00F07AFD53
:10121000CDE908014A489DED080B0521784400F00E
:1012200097F89DED081B51EC100B53EC112B00F0BF
:1012300069FD9DED021B53EC112B00F097FECDE9EB
:1012400006019DED020B53EC1A2B51EC100B00F034
:1012500059FD53EC1A2B00F0ADFA9FED3B0B41EC1E
:101260001A0B53EC102B9DED060B51EC100B00F0FC
:1012700055FF9DED060B41EC1B0B53EC102B9DED28
:10128000020B51EC100B00F03DFD53EC1B2B00F05A
:101290004DFB53EC1A2B00F041FF9DED021B53EC6C
:1012A000112B00F03BFF53EC192B00F05FFECDE952
:1012B000020101EB065001150029C8BF039015DC9F
:1012C0009DED020B324651EC100B01F048F8FFF790
:1012D000FDF9042808BF00F0FBF832469DED020B33
:1012E00051EC100B01F03BF8CDE902019DED020B32
:1012F00051EC180B53EC102B00F004FDFFF73ABB38
:101300000000904000000000FE822B654715973CCE
:1013100000CC904000346F3F01FCFFFF0000E03F35
:1013200060130000FFFF0F0000000000432EE63FA7
:10133000396CA80C615C20BEEF39FAFE422EE63F04
:10134000301200000000000000000000000000401B
:1013500070B504462DED028B4D1E00EBC500B0EEBE
:10136000408AF0EE608A90ED000B35F0060017D051
:1013700053EC182B51EC100B00F0C4FC41EC100B9B
:101380006D1E04EBC50090ED001B51EC100B53ECEF
:10139000112B00F00FFA41EC100B35F00600E7D1ED
:1013A000022D36D0042D1CD0062D1CBFBDEC028BA7
:1013B00070BD53EC182B51EC100B00F0A3FC94ED16
:1013C0000A1B53EC112B00F0F5F953EC182B00F02D
:1013D00099FC94ED081B53EC112B00F0EBF941EC58
:1013E000100B53EC182B51EC100B00F08BFC94ED10
:1013F000061B53EC112B00F0DDF953EC182B00F019
:1014000081FC94ED040B53EC102B00F0D3F941EC6C
:10141000100B53EC182B51EC100B00F073FC94EDF7
:10142000021B53EC112B00F0C5F953EC182B00F004
:1014300069FC94ED001B53EC112B00F0BBF9BDECE3
:10144000028B41EC100B70BD9FED070B10B553ECF8
:10145000102B9FED070B51EC100B00F067FA41ECDD
:10146000100B10BD00000000000000000000000094
:10147000000000000000F03F10B553EC112B51ECC0
:10148000100B00F097F941EC100B10BD00000000AC
:101490009FED050B10B553EC102B51EC100B00F029
:1014A00045FA41EC100B10BD0000000000000000E8
:1014B0009FED050B10B553EC102B51EC100B00F009
:1014C00021FC41EC100B10BD00000000000000707A
:1014D0009FED050B10B553EC102B51EC100B00F0E9
:1014E00011FC41EC100B10BD0000000000000010CA
:1014F000800000E0401E0028FCD1704782B0CDE99A
:10150000000121F0004001909DED000B02B051EC74
:10151000100B704700B58FB001210846FEF7F4FFAD
:1015200001210820FEF7F0FF01210802FEF7FCFF71
:1015300001208DF830004FF470400B9000208DF8A2
:10154000320003208DF831000BA91248FEF793FFFB
:1015500003208DF8380001200D9000208DF83A000E
:101560008DF83B000DA90C48FEF785FF0020019087
:101570004FF48030029001A8FEF7CCFE00200590C9
:1015800005A90648FEF7ECFE01210448FEF7B7FE68
:101590000FB000BD000C02400000024000200140DE
:1015A0002DED048BFFF7B6FF33E0002019490870DA
:1015B0002BE01848007800F055FB41EC190BB0EE19
:1015C000491AF0EE691A9FED140BFFF799F8B0EE87
:1015D000408AF0EE608A51EC180B00F0FFFAC4B2BA
:1015E000204600F021F80A20FFF782FFFEF7ACFF4B
:1015F0000B49084A127821F812000A48FFF778FFD1
:1016000004480078401C0349087002480078082804
:10161000CFDBCAE70000002000000000000000400F
:101620000400002040420F0070B52DED048B82B005
:1016300005464FF400403A49088080100880002495
:1016400033E0204600F00EFB41EC190BB0EE491AD6
:10165000F0EE691A9FED330BFFF752F8B0EE408AB7
:10166000F0EE608A51EC180B00F0B8FA00EA0506BB
:10167000204600F0F7FA41EC190BB0EE491AF0EEF3
:10168000691A9FED280BFFF73BF8B0EE408AF0EEA9
:10169000608A51EC180B00F0A1FAC0B296FBF0F092
:1016A000C0B20DF80400601CC4B2082CC9DB0024D1
:1016B0001DE01DF8040028B14FF400401849891EB0
:1016C000088003E04FF40040154908800120FFF72F
:1016D0000FFF4FF480401249891E08800120FFF758
:1016E00007FF4FF480400E490880601CC4B2082CEC
:1016F000DFDB0120FFF7FCFE4FF400500849891E94
:1017000008800120FFF7F4FE4FF4005004490880E0
:101710000120FFF7EDFE02B0BDEC048B70BD0000B0
:101720001A0C0240000000000000004000B52DED42
:10173000048B83B041EC190B00F024FC41EC180B36
:1017400018EE100A18EE901A8DED008B002818BFC5
:101750000120084320F00040C0F17F6000F1E0402C
:10176000C00F14D019EE101A19EE900A8DED009BDF
:10177000002918BF0121084320F00040C0F17F601C
:1017800000F1E040C00F04BF0120FEF775FD51ECF1
:10179000180B03B0BDEC048B00BD81F00041704715
:1017A00080F00040704721F00041704720F0004079
:1017B0007047000010B591EA030F48BF83F0004363
:1017C00000F1B484841A71EB030C05D2121943EBB7
:1017D0000C03001B61EB0C01DFF824E14FEA11540C
:1017E000A4EB135C1EEA430F18BF9EEA445F73D05C
:1017F00023EA0E03DCF1200E21EA045143F48013A6
:1018000032D322FA0CFE10EB0E0023FA0CFE41EB51
:101810000E01CCF1200E03FA0EFE10EB0E0051F17A
:101820000001B1F5801FCCF1200E32D201EB045142
:1018300012FA0EF2BDE8104058BF7047401C38BF86
:101840005FEA420218BF7047002814BF20F0010071
:1018500041F100014FEA410313F5001F38BF704703
:10186000A1F1C04100F046BB012A43EB0302ACF1F9
:10187000200CDCF11F0E32BF4FF0000E23FA0CF3E8
:1018800010EB030041EB0451B4EB115FD0D0A1EB9E
:10189000045101F5801149085FEA300001EB045161
:1018A0000ED350F1000038BF12FA0EFE08D1BDE889
:1018B0001040C9E7401C38BF5FEA4202CAD1C3E703
:1018C000BDE810404FEA410313F5001F38BF7047D1
:1018D000A1F1C04100F00EBB9EEA445F08D011EABE
:1018E0005E0FBDE8104004BF01F0004100207047CA
:1018F000BDE8104070B500F0AFFA00BF64FBBE3E1B
:101900000000E0FF02494FF0000000F0F6BC00BF0D
:101910000000F87F491058BFC1F140415B1058BF2B
:10192000C3F140438B42EFF3008070472DE9C04183
:1019300030B4DFF8A0C23CEA111418BF3CEA13141B
:1019400000F0EC8081EA03051CEA111444EAD57426
:1019500018BF1CEA131500F0C780A4EB05044FF074
:10196000004545EAC12145EAC32341EA505143EA13
:10197000525304F17F74994204F500344FEAC020B9
:101980004FEAC22208BF904200F09C804FEA1365E4
:101990000FF24016765D4FEA134506FB05F7C7F1D7
:1019A000807706FB07F74FEAD737A7FB0368764235
:1019B000C8F58038A7FB06CE38BFA8F1010807FBA1
:1019C00008E64FF0000EA6FB028CE6FB03CEDCF12E
:1019D000000CCEF1004E38BFAEF1010EA6FB0C5844
:1019E0004FF000074FF00005E6FB0E87A1FB08C68D
:1019F000A0FB07CE16EB0E0645F10005E1FB0765DF
:101A000015F1E04E7EBFA4F580345FEA46066D41D5
:101A100016F1800745F100054FEA17274FEA0666E1
:101A200047EA0567A6F1DE46B6F1805F4FEA152565
:101A30001FD9384624F0010C05EBC471BCF1FE6FD0
:101A400001EB0C1102D8F0BCBDE8008124425CBF60
:101A500001F5801E9EEAC47F02D4F0BCBDE800817F
:101A6000244238D4F0BCA1F1C041BDE8004100F0EF
:101A700041BA4FEAD22242EA43524FEAD323A7FBAC
:101A800002864FEAD02040EA415007FB03661EEA77
:101A90000E0F4FEAD12105FB026658BFA6EB005698
:101AA000B6EB00564FEA520E4EEAC37E18EB0E0E0E
:101AB00056EB530EBDD518EB02085E417F1C55F165
:101AC0000005B6E74FF480154FF000074FF0000611
:101AD0004FF00008ADE7F0BC4FF0000001F1C0414D
:101AE00001F00041BDE8008111EA0C1F0CEA13155A
:101AF00000D00CE013EA0C1F00F025804FF000002E
:101B0000F0BC81EA030101F00041BDE80081F0BCB6
:101B1000BDE8004181EA030100F0ECB9F0BCBDE88A
:101B2000004170B500F098F9097EFC3E00F007B85E
:101B300081EA03014FF0000001F00041704781EAA3
:101B4000030100F0D7B9F0BCBDE800414FF0000040
:101B500021497047FFFDFBF9F7F5F4F2F0EEEDEBEC
:101B6000E9E8E6E4E3E1E0DEDDDBDAD8D7D5D4D39B
:101B7000D1D0CFCDCCCBCAC8C7C6C5C4C2C1C0BFE7
:101B8000BEBDBCBBBAB9B8B7B6B5B4B3B2B1B0AFED
:101B9000AEADACABAAA9A8A8A7A6A5A4A3A3A2A1D1
:101BA000A09F9F9E9D9C9C9B9A999998979796958C
:101BB00095949393929191908F8F8E8E8D8C8C8B28
:101BC0008B8A8989888887878685858484838382B0
:101BD000828181800000FF070000F87F4FEA1153E7
:101BE000A3F58063D3F11E03A8BFD3F1200C08DB5B
:101BF0004FF0004242EAC12252EA505232FA03F058
:101C0000704709420BD4102BC4BF0020704703F566
:101C1000787CBCF1FF3F05D04FF0FF3070474FF0AC
:101C20000000704770B500F017F900BF499224809A
:101C300000207047F0E710F0004248BF4042B0FA81
:101C400080F310FA03F10AD0C3F11D0303F580639A
:101C50004FEA415002EB035202EBD12170474FF0A3
:101C600000007047B0FA80F310FA03F10AD0C3F114
:101C70001D0303F580634FEA41504FEA035202EB24
:101C8000D12170474FF000007047000051EA030C6B
:101C900017D41CF5801F58BFBCF5801F00F10680CB
:101CA000994218BF704708BF9042704707D711F597
:101CB000801F58BF13F5801F19D49942704789427D
:101CC00070471CF5801F08D5BCF5801FF7D58B42E7
:101CD00018BF704708BF824270474FF4001C1CEBCE
:101CE000410F38BF1CEB430F01D28B42704770B5D8
:101CF00000F0B2F8922449004FF000514FF08053A9
:101D0000FFF708BEDFF848C170B51CEA111E1EBF00
:101D10001CEA13159EEA0C0F95EA0C0F00F06F8079
:101D200081EA030423EA4C134EEAD47E21EA4C11E3
:101D300041F4801143F48013AE44A1FB024CA0FB9C
:101D40000365AEF17F7E361955EB0C05A1FB034C04
:101D50004CF10003A0FB021C16EB0C06654153F18D
:101D60000003094218BF46F0010613F4007F0BD1AF
:101D70004FEA03314FEA0530340341EA155140EA96
:101D800016506FF003020AE04FEAC3214FEAC52064
:101D9000F40241EA555140EA56506FF0020202EB5C
:101DA0002E4201EB025585EACE710AD05FEA440C5F
:101DB00018BF24F0004450F1000041F1000120EA76
:101DC000D47040F2FE7C624500D270BDA84214BFC0
:101DD0004FF080444FF04044002E08BF0024BEF175
:101DE000806FA8BFA1F1C041BDE8704080F2828041
:101DF0004FF0000001F1C04101F0004170479EEA40
:101E00000C0F0CEA131518BF95EA0C0F06D04FF013
:101E1000000081EA030E0EF0004170BD00F01CF8D6
:101E20008900013E00F007B800F009B84FEA430C02
:101E30005FEA5C5C08D081EA030100F05BB84FEA1E
:101E4000410C5FEA5C5CF6D14FF00000014970473D
:101E50000000FF070000F87F0EF1020E2EF0030EC7
:101E60005EF8046B364205D4012A43EB030515F5F1
:101E7000001F12D8012841EB010C1CF5001F0CD8E3
:101E80000ED14FEAD17C15F5001F0CEB4C0C0CF178
:101E9000020C08BF4CEBD37C04E04FF0080C01E0CF
:101EA0004FEAD37C0CEB4C0526FA05F606F0070644
:101EB000B6F1040C06D20EEB860CBDE870404CF077
:101EC000010C6047DFE80CF0090B02024FF0004103
:101ED0004FF00000A1F5002170BD19461046012801
:101EE00051EB010418BFD4F5001484BF002001F0A9
:101EF000004170BD0808A0F500114FEA310170479C
:101F000053EA010C17D41CF5801F58BFBCF5801F85
:101F100000F106808B4218BF704708BF82427047AD
:101F200007D713F5801F58BF11F5801F19D48B42B6
:101F300070479B4270471CF5801F08D5BCF5801F79
:101F4000F7D5994218BF704708BF904270474FF4C9
:101F5000001C1CEB430F38BF1CEB410F01D2994210
:101F600070470FB40CBC03BCFFF7C1BE91EA030F6E
:101F700010B581F000413FF525AC83F0004300F03F
:101F8000D5B800002DE9F04101F5801CBCF5001F1B
:101F9000C0F2A9804FEA115C21EA0C510CF1FD0C52
:101FA00041F480115FEA5C0C0CF5C07C01D3400069
:101FB000494130A4890241EA905187028E0E0A0CF1
:101FC000A45D04FB04F602FB06F6C6F14046A4FB42
:101FD0000662F60D46EA422606FB06F4A4FB012340
:101FE0005242C3F1404338BF5B1EA6FB02420024AD
:101FF000E6FB0324D20B42EA4446A6FB0623A1FBE0
:1020000002E2A3FB07E4E3FB61426442C2F1404EFB
:1020100038BFAEF1010EA6FB04234FF00002E6FB31
:102020000E32A2FB03463400E2FB6264A1FB06E62B
:10203000A4FB07E8E4FB61687642C8F1405838BF6A
:10204000A8F10108A2FB06E4A3FB08E5E2FB685443
:10205000A1FB05E6A7FB04E8E1FB648618F1200577
:1020600056F10006A809A8F11B08B10908F03F08BD
:10207000B8F10A0F40EA86601CD901EB0C51BDE8AB
:10208000F08100BFFCF5EEE8E2DDD8D3CFCBC7C3CB
:10209000C0BDB9B6B4B1AEACA9A7A5A3A19F9D9B85
:1020A0009A9896959392908F8D8C8B898887868548
:1020B00084838281A0FB006800FB01F208EB4208E8
:1020C000B8EB872807D5341858EB0104D5D5401C48
:1020D00051F10001D1E7341A78EB0104CDD4401E50
:1020E00071F10001C9E75FEA4C0C5FEA9C5C0DD11D
:1020F00005D34FF0000001F00041BDE8F081BDE8DC
:10210000F04170B5FFF7A8FE6DDBFFBEBDE8F04102
:102110004FF00000004970470000F87F10B591EAC9
:10212000030F48BF83F000433FF54CAB841A71EBBB
:10213000030C07D212198CF0004C43EB0C03001B6C
:1021400061EB0C01DFF8A4E14FEA1154A4EB135C3E
:102150001EEA430F18BF9EEA445F00F0B08023EAF6
:102160006E03524221EA0451C3EB6E0338BF5B1E7B
:10217000DCF1200E25D322FA0CFE10EB0E0043FA00
:102180000CFE41EB0E01CCF1200E03FA0EFE10EB1B
:102190000E0051F10001CCF1200E29D412FA0EF2FA
:1021A00001EB0451BDE8104058BF7047401C1CBFF4
:1021B000B2F1004F704700280CBF491C20F001000D
:1021C000704712EB020E43EB030218BF4FF0010EF3
:1021D0004EEA4202ACF1200CDCF11E0E54D943FA57
:1021E0000CFE10EB0E0051F1FF31CCF11E0ED5D5D7
:1021F0000EF1010E12FA0EFE404141EB010101EB1E
:10220000445C5FEA5C5C10D910EBDE7001EB0451BA
:1022100038BFBEF1004FBDE8104018BF704700281E
:102220000CBF491C20F00100704730D24FEAD42C7B
:1022300011F5001124F400641BD0B1FA81F20B3ABD
:10224000A41AA41ED2F12003914030FA03F31943DB
:10225000904001EBCC71002C01EB0451BDE8104023
:10226000A8BF704701F1C0414FF0000001F00041EC
:102270007047B0FA80F310FA03F100D110BDE41AF0
:10228000173C4805C90AE4E701EB045110BD4910A9
:1022900001EB0451BDE810404FEA300002E04FF07E
:1022A000000170474A0008BF0042F8D0B2F5001F95
:1022B00028BF704701F000414FF0000070479EEAD0
:1022C000445F07D011EA5E0FBDE8104004BF002153
:1022D00000207047BDE8104070B5FFF7BDFD00BF9E
:1022E00040DFF63E83F00041104670470000E0FFFB
:1022F0004FF04070E1EE100A70470CF00F03092B0D
:1023000008BF082000F059800A2B0BD0082B18BFFB
:10231000704708BF1CF0400F0AD04FF000004FF08C
:10232000000170471CF0400F18BF4FF0004070478D
:102330001CF0100F08D020F0704300F07F4242EAFA
:10234000D3014FEA4370704700F0604021F07F42B4
:1023500042EA000201F07F4040EA727070474FF09D
:10236000FF0C4CF4E06C1CEA11531CBF9CEA030CFC
:102370009445C2BFDA4201EB02517047002B0DD0E9
:10238000BCF1000F0FD0002A01F00041A4BF41F0C2
:10239000E04141F07F614FF00000704701F00041E3
:1023A0004FF00000704750EA01334FF09B0C18BF0C
:1023B0004CF0806C7FF4A6AA70471CF4801F11D0EB
:1023C0001CF4E02F03D06FEACC31490070474FF086
:1023D0004050EFF3008222F0704242EA000282F3A2
:1023E000008870474FF000007047000000000000B8
:1023F000000000000000F03F000000000000F83F77
:1024000000000000000000000000004003B8E23FB0
:10241000000000000000000006D0CF43EBFD4C3E62
:10242000033333333333E33FFFAB6FDBB66DDB3F57
:102430004D268F515555D53F01411DA96074D13F9F
:1024400065DBC9934A86CD3FEF4E454A287ECA3F99
:102450003E5555555555C53F93BDBE166CC166BF1B
:102460002CDE25AF6A56113FF16BD2C541BDBBBE14
:10247000D0A4BE726937663E000000000000000074
:10248000A02400080000002004000000C40100088F
:10249000A42400080400002074060000E0010008E5
:0424A0000000000038
:0400000508000229C4
:00000001FF
